:1000000002EF00F0F86AD09EC150C00B0F09C16E1C
:10001000070EB46E0AD0FF0E056E066E052E01D0D7
:1000200003D0062EFED7FAD71200000EF16EFF0E97
:10003000936E000E956EE60E400E8C6E81B604D067
:1000400081A202D00DD0F8D781A604D081B202D00F
:1000500007D0F2D781B604D081B202D003D0ECD75A
:100060008390EAD7220E8C6EFF0E076E074E03D0E8
:100070000BED00F0FBD7AD0E086E084E03D00BED74
:1000800000F0FBD7210E8C6E7A0E096E094E03D05C
:100090000BED00F0FBD70C0E8C6EFF0E0A6E0A4EB5
:1000A00003D00BED00F0FBD7AD0E0B6E0B4E03D063
:1000B0000BED00F0FBD7140E8C6E7A0E0C6E0C4E0E
:1000C000BBD70BED00F0FBD7836A0BED00F0FF0E02
:0A00D000836E0BED00F0F8D703007B
:020000040030CA
:0E0000003FCC3E1E0007A1000FC00FE00F40D6
:00000001FF
;PIC18F4550
;CRC=1054  CREATED="01-mar-24 11:15"
